:020000040800F2
:100000000000012025050008750500087505000899
:10001000750500087505000875050008000000005A
:10002000000000000000000000000000750500084E
:10003000750500080000000075050008750500083A
:1000400075050008750500087505000875050008A8
:100050007505000875050008750500087505000898
:100060007505000875050008750500087505000888
:100070007505000875050008750500087505000878
:1000800075050008750500087505000800000000EA
:1000900000000000000000000000000075050008DE
:1000A0007505000875050008750500087505000848
:1000B0007505000875050008750500087505000838
:1000C0007505000875050008750500087505000828
:1000D000750500087505000875050008000000009A
:1000E000750500087505000875050008000000008A
:1000F000000000000000000000000000750500087E
:100100000000000075050008750500087505000869
:1001100000000000000000000000000000000000DF
:1001200075050008750500087505000875050008C7
:10013000750500080000000000000000000000003D
:10014000000000000000000000000000750500082D
:100150007505000875050008750500087505000897
:10016000750500087505000800000000000000008B
:10017000000000000000000000000000000000007F
:1001800000000000750500080000000000000000ED
:0401900075050008E9
:1001940010B5054C237833B9044B13B10448AFF3BD
:1001A40000800123237010BD7400002000000000B3
:1001B400C005000808B5034B1BB103490348AFF35E
:1001C400008008BD0000000078000020C005000881
:1001D40080B483B000AF0346FB71FB79002B02D0DF
:1001E400012B15D029E0FB79174A2C2101FB03F3DD
:1001F400134428331B681A68FB7913492C2000FB2D
:1002040003F30B4428331B6842F001021A6014E024
:10021400FB790D4A2C2101FB03F3134428331B689B
:100224001A68FB7908492C2000FB03F30B4428339C
:100234001B6842F002021A6000BF00BF0C37BD46C3
:100244005DF8047B704700BF0000002090B482B0CA
:1002540000AF0446084611461A462346FB7103467E
:10026400BB710B467B7113463B71FB794D4A2C21C4
:1002740001FB03F313441B681A68BB795B00032179
:1002840001FA03F3DB431C46FB7946492C2000FBAF
:1002940003F30B441B6822401A60FB79414A2C216A
:1002A40001FB03F313441B681A687979BB795B007B
:1002B40001FA03F31C46FB793A492C2000FB03F3B3
:1002C4000B441B6822431A60FB79364A2C2101FB3C
:1002D40003F3134404331B681A68BB79012101FA40
:1002E40003F3DB431C46FB792E492C2000FB03F36C
:1002F4000B4404331B6822401A60FB79294A2C21E1
:1003040001FB03F3134404331B681A683B7903F0BD
:100314000101BB7901FA03F31C46FB7921492C2026
:1003240000FB03F30B4404331B6822431A60FB797C
:100334001C4A2C2101FB03F313440C331B681A6879
:10034400BB795B00032101FA03F3DB431C46FB7911
:1003540014492C2000FB03F30B440C331B6822408C
:100364001A60FB790F4A2C2101FB03F313440C336D
:100374001B681A683B795B1003F00301BB795B00CF
:1003840001FA03F31C46FB7906492C2000FB03F316
:100394000B440C331B6822431A6000BF0837BD4668
:1003A40090BC70470000002080B483B000AF0023ED
:1003B4007B6002E07B6801337B607B68044A934284
:1003C400F8DD00BF00BF0C37BD465DF8047B704705
:1003D4001FA1070080B500AF0020FFF7F9FE00233E
:1003E400022202210020FFF731FF00230222032111
:1003F4000020FFF72BFF244B5B681A68224B5B68D5
:1004040042F4E0621A60204B5B681A681E4B5B681A
:1004140042F4E0421A601C4B1B681A681A4B1B68B2
:1004240042F400321A60184B9B681A68164B9B689A
:1004340042F400521A60144B9B681A68124B9B6872
:1004440022F480521A60104B5B6940F283621A6096
:100454000D4B9B681A680C4B9B6842F004021A60AF
:10046400094B9B681A68084B9B6842F008021A60A3
:10047400054BDA68044BDB6812681A60FFF794FFD7
:10048400024800F01FF8F9E758000020D8050008DA
:1004940080B483B000AF0346FB71094B1B69FA7942
:1004A4001A6000BF064B9B691B6803F04003002BD6
:1004B400F8D000BF00BF0C37BD465DF8047B704721
:1004C4005800002080B584B000AF78600023FB6042
:1004D40009E0FB687A6813441B781846FFF7D8FFD5
:1004E400FB680133FB60FB687A6813441B78002BBC
:1004F400EFD100BF00BF1037BD4680BD80B400AF50
:10050400064BD3F88830054A43F47003C2F88830A8
:1005140000BFBD465DF8047B704700BF00ED00E0FE
:10052400DFF834D00D480E490E4A002302E0D458B7
:10053400C4500433C4188C42F9D30B4A0B4C002327
:1005440001E013600432A242FBD3FFF7D7FF00F0AF
:1005540011F8FFF73FFF7047000001200000002062
:1005640074000020F00500087400002090000020B2
:10057400FEE7000070B50D4D0D4C641BA410002661
:10058400A64209D10B4D0C4C00F018F8641BA410C2
:100594000026A64205D170BD55F8043B98470136A4
:1005A400EEE755F8043B98470136F2E7E805000802
:1005B400E8050008E8050008EC050008F8B500BFE8
:1005C400F8BC08BC9E467047F8B500BFF8BC08BC30
:0405D4009E46704788
:1005D80068656C6C6F20776F726C64200A0D000080
:0405E800B90100084D
:0405EC00950100086D
:1005F0000000024004000240080002400C000240DB
:100600001000024014000240180002401C0002408A
:100610002000024024000240303802400004024022
:1006200004040240080402400C040240100402408A
:1006300014040240180402401C040240200402403A
:10064000240402403038024040380240200002407A
:100650000C44004010440040044400400844004062
:040660000044004012
:0400000508000525C5
:00000001FF
