:020000040800F2
:1000000000000120CD0900081D0A00081D0A000893
:100010001D0A00081D0A00081D0A00080000000053
:100020000000000000000000000000001D0A0008A1
:100030001D0A0008000000001D0A00081D0A000833
:100040001D0A00081D0A00081D0A00081D0A0008F4
:100050001D0A00081D0A00081D0A00081D0A0008E4
:100060001D0A00081D0A00081D0A00081D0A0008D4
:100070001D0A00081D0A00081D0A00081D0A0008C4
:100080001D0A00081D0A00081D0A000800000000E3
:100090000000000000000000000000001D0A000831
:1000A0001D0A00081D0A00081D0A00081D0A000894
:1000B0001D0A00081D0A00081D0A00081D0A000884
:1000C0001D0A00081D0A00081D0A00081D0A000874
:1000D0001D0A00081D0A00081D0A00080000000093
:1000E0001D0A00081D0A00081D0A00080000000083
:1000F0000000000000000000000000001D0A0008D1
:10010000000000001D0A00081D0A00081D0A000862
:1001100000000000000000000000000000000000DF
:100120001D0A00081D0A00081D0A00081D0A000813
:100130001D0A000800000000000000000000000090
:100140000000000000000000000000001D0A000880
:100150001D0A00081D0A00081D0A00081D0A0008E3
:100160001D0A00081D0A0008000000000000000031
:10017000000000000000000000000000000000007F
:10018000000000001D0A0008000000000000000040
:040190001D0A00083C
:1001940010B5054C237833B9044B13B10448AFF3BD
:1001A40000800123237010BD6400002000000000C3
:1001B400680A000808B5034B1BB103490348AFF3B1
:1001C400008008BD0000000068000020680A0008E4
:1001D40080B483B000AF0346FB71FB79002B02D0DF
:1001E400012B15D029E0FB79174A2C2101FB03F3DD
:1001F400134428331B681A68FB7913492C2000FB2D
:1002040003F30B4428331B6842F001021A6014E024
:10021400FB790D4A2C2101FB03F3134428331B689B
:100224001A68FB7908492C2000FB03F30B4428339C
:100234001B6842F002021A6000BF00BF0C37BD46C3
:100244005DF8047B704700BF0000002090B482B0CA
:1002540000AF0446084611461A462346FB7103467E
:10026400BB710B467B7113463B71FB794D4A2C21C4
:1002740001FB03F313441B681A68BB795B00032179
:1002840001FA03F3DB431C46FB7946492C2000FBAF
:1002940003F30B441B6822401A60FB79414A2C216A
:1002A40001FB03F313441B681A687979BB795B007B
:1002B40001FA03F31C46FB793A492C2000FB03F3B3
:1002C4000B441B6822431A60FB79364A2C2101FB3C
:1002D40003F3134404331B681A68BB79012101FA40
:1002E40003F3DB431C46FB792E492C2000FB03F36C
:1002F4000B4404331B6822401A60FB79294A2C21E1
:1003040001FB03F3134404331B681A683B7903F0BD
:100314000101BB7901FA03F31C46FB7921492C2026
:1003240000FB03F30B4404331B6822431A60FB797C
:100334001C4A2C2101FB03F313440C331B681A6879
:10034400BB795B00032101FA03F3DB431C46FB7911
:1003540014492C2000FB03F30B440C331B6822408C
:100364001A60FB790F4A2C2101FB03F313440C336D
:100374001B681A683B795B1003F00301BB795B00CF
:1003840001FA03F31C46FB7906492C2000FB03F316
:100394000B440C331B6822431A6000BF0837BD4668
:1003A40090BC70470000002090B484B000AF0346B6
:1003B400FB710B46BB7113467B71FB79294A2C21D7
:1003C40001FB03F313441B681B68BA795200032131
:1003D40001FA02F21A40BB795B0022FA03F3012B03
:1003E40037D17B79002B18D0FB791E4A2C2101FBD5
:1003F40003F3134414331B681A68BB79012101FA0F
:1004040003F31C46FB7917492C2000FB03F30B4430
:1004140014331B6822431A6018E0FB79114A2C211B
:1004240001FB03F3134414331B681A68BB790121DD
:1004340001FA03F3DB431C46FB790A492C2000FB39
:1004440003F30B4414331B6822401A600023FB732C
:1004540001E00123FB73FB7B18461037BD4690BCBB
:10046400704700BF0000002080B485B000AF034691
:100474000A46FB711346BB710023FB73FB790C4ADC
:100484002C2101FB03F3134410331B681B68BA7956
:10049400012101FA02F21A40BB7922FA03F3FB7339
:1004A400FB7B18461437BD465DF8047B704700BFDC
:1004B4000000002080B483B000AF00237B6002E022
:1004C4007B6801337B607B6847F22F529342F7D9F4
:1004D40000BF00BF0C37BD465DF8047B704780B594
:1004E40082B000AF00237B6009E07B68D9B20023AF
:1004F40001220020FFF7AAFE7B6801337B607B6842
:10050400032BF2DD00233B600BE03B68DBB20433DA
:10051400D9B2022300220020FFF798FE3B68013382
:100524003B603B68022BF0DD00BF00BF0837BD46CF
:1005340080BD000080B400AF074B1B78012B05D1B0
:10054400054B00221A70054B1B7800E0FF23184668
:10055400BD465DF8047B70478000002081000020C8
:1005640080B582B000AF284B1B78002B47D1002305
:100574007B6041E07B68DBB2002219460020FFF774
:1005840013FF00233B602AE03B68DBB20433DBB299
:1005940019460020FFF768FF0346002B1CD1FFF724
:1005A40089FF3B68DBB20433DBB219460020FFF756
:1005B4005BFF0346002B0FD114497A6813465B0096
:1005C4001344CA183B6813441A78114B1A700E4B23
:1005D40001221A7000F056F83B6801333B603B6817
:1005E400022BD1DD7B68DBB2012219460020FFF724
:1005F400DBFE7B6801337B607B68032BBADD00BFC5
:100604000837BD4680BD00BF800000205800002090
:100614008100002080B500AF0020FFF7D9FDFFF76F
:100624005EFF0120FFF7D4FD0023012205210120F4
:10063400FFF70CFE0023012206210120FFF706FE2E
:100644000023012207210120FFF700FE00230122DD
:1006540008210120FFF7FAFD0023012209210120CE
:10066400FFF7F4FD002301220A210120FFF7EEFD2C
:10067400002301220C210120FFF7E8FDFFF770FFA2
:10068400FCE7000080B582B000AFFFF753FF0346DC
:10069400FB71FB79092B00F27F8101A252F823F050
:1006A400CD060008150700085D070008A507000827
:1006B400ED070008350800087D080008C508000893
:1006C4000D09000855090008012205210120FFF742
:1006D4006BFE012206210120FFF766FE012207219D
:1006E4000120FFF761FE012208210120FFF75CFED3
:1006F400012209210120FFF757FE01220A210120CE
:10070400FFF752FE00220C210120FFF74DFE44E1C9
:10071400002205210120FFF747FE012206210120C6
:10072400FFF742FE012207210120FFF73DFE0022D0
:1007340008210120FFF738FE002209210120FFF7DC
:1007440033FE00220A210120FFF72EFE00220C2195
:100754000120FFF729FE20E1012205210120FFF7F6
:1007640023FE012206210120FFF71EFE002207219D
:100774000120FFF719FE012208210120FFF714FED2
:10078400012209210120FFF70FFE00220A21012086
:10079400FFF70AFE01220C210120FFF705FEFCE011
:1007A400012205210120FFF7FFFD0122062101207E
:1007B400FFF7FAFD012207210120FFF7F5FD0122D1
:1007C40008210120FFF7F0FD002209210120FFF795
:1007D400EBFD00220A210120FFF7E6FD01220C2196
:1007E4000120FFF7E1FDD8E0002205210120FFF7F9
:1007F400DBFD012206210120FFF7D6FD012207219E
:100804000120FFF7D1FD002208210120FFF7CCFDD4
:10081400002209210120FFF7C7FD01220A2101203E
:10082400FFF7C2FD01220C210120FFF7BDFDB4E05A
:10083400012205210120FFF7B7FD00220621012036
:10084400FFF7B2FD012207210120FFF7ADFD0122D0
:1008540008210120FFF7A8FD002209210120FFF74C
:10086400A3FD01220A210120FFF79EFD01220C2194
:100874000120FFF799FD90E0012205210120FFF7F7
:1008840093FD002206210120FFF78EFD012207219E
:100894000120FFF789FD012208210120FFF784FDD3
:1008A400012209210120FFF77FFD01220A210120F5
:1008B400FFF77AFD01220C210120FFF775FD6CE0A2
:1008C400012205210120FFF76FFD012206210120ED
:1008D400FFF76AFD012207210120FFF765FD0022D1
:1008E40008210120FFF760FD002209210120FFF704
:1008F4005BFD00220A210120FFF756FD00220C2196
:100904000120FFF751FD48E0012205210120FFF7F6
:100914004BFD012206210120FFF746FD012207219C
:100924000120FFF741FD012208210120FFF73CFDD2
:10093400012209210120FFF737FD01220A210120AC
:10094400FFF732FD01220C210120FFF72DFD24E0E9
:10095400012205210120FFF727FD012206210120A4
:10096400FFF722FD012207210120FFF71DFD0122CF
:1009740008210120FFF718FD002209210120FFF7BB
:1009840013FD01220A210120FFF70EFD01220C2193
:100994000120FFF709FD00E000BF00BF0837BD4696
:1009A40080BD00BF80B400AF064BD3F88830054A41
:1009B40043F47003C2F8883000BFBD465DF8047B81
:1009C400704700BF00ED00E0DFF834D00D480E4959
:1009D4000E4A002302E0D458C4500433C4188C4295
:1009E400F9D30B4A0B4C002301E013600432A242FA
:1009F400FBD3FFF7D7FF00F011F8FFF70BFE7047AA
:100A0400000001200000002064000020880A000883
:100A14006400002084000020FEE7000070B50D4D46
:100A24000D4C641BA4100026A64209D10B4D0C4C9E
:100A340000F018F8641BA4100026A64205D170BD6E
:100A440055F8043B98470136EEE755F8043B9847C0
:100A54000136F2E7800A0008800A0008800A0008CC
:100A6400840A0008F8B500BFF8BC08BC9E4670476D
:0C0A7400F8B500BFF8BC08BC9E467047F7
:040A8000B9010008B0
:040A840095010008D0
:100A88000000024004000240080002400C0002403E
:100A98001000024014000240180002401C000240EE
:100AA8002000024024000240303802400004024086
:100AB80004040240080402400C04024010040240EE
:100AC80014040240180402401C040240200402409E
:100AD80024040240303802400102030405060708D6
:040AE8000900000001
:04000005080009CD19
:00000001FF
