:020000040800F2
:1000000000000120C50500081506000815060008B7
:100010001506000815060008150600080000000077
:1000200000000000000000000000000015060008AD
:100030001506000800000000150600081506000857
:100040001506000815060008150600081506000824
:1000500015060008150600083505000815060008F5
:100060001506000815060008150600081506000804
:1000700015060008150600081506000815060008F4
:100080001506000815060008150600080000000007
:10009000000000000000000000000000150600083D
:1000A00015060008150600081506000815060008C4
:1000B00015060008150600081506000815060008B4
:1000C00015060008150600081506000815060008A4
:1000D00015060008150600081506000800000000B7
:1000E00015060008150600081506000800000000A7
:1000F00000000000000000000000000015060008DD
:100100000000000015060008150600081506000886
:1001100000000000000000000000000000000000DF
:100120001506000815060008150600081506000843
:10013000150600080000000000000000000000009C
:10014000000000000000000000000000150600088C
:100150001506000815060008150600081506000813
:100160001506000815060008000000000000000049
:10017000000000000000000000000000000000007F
:10018000000000001506000800000000000000004C
:040190001506000848
:1001940010B5054C237833B9044B13B10448AFF3BD
:1001A40000800123237010BD7400002000000000B3
:1001B4006006000808B5034B1BB103490348AFF3BD
:1001C400008008BD000000007800002060060008E0
:1001D40080B483B000AF0346FB71FB79002B02D0DF
:1001E400012B15D029E0FB79174A2C2101FB03F3DD
:1001F400134428331B681A68FB7913492C2000FB2D
:1002040003F30B4428331B6842F001021A6014E024
:10021400FB790D4A2C2101FB03F3134428331B689B
:100224001A68FB7908492C2000FB03F30B4428339C
:100234001B6842F002021A6000BF00BF0C37BD46C3
:100244005DF8047B704700BF0000002090B482B0CA
:1002540000AF0446084611461A462346FB7103467E
:10026400BB710B467B7113463B71FB794D4A2C21C4
:1002740001FB03F313441B681A68BB795B00032179
:1002840001FA03F3DB431C46FB7946492C2000FBAF
:1002940003F30B441B6822401A60FB79414A2C216A
:1002A40001FB03F313441B681A687979BB795B007B
:1002B40001FA03F31C46FB793A492C2000FB03F3B3
:1002C4000B441B6822431A60FB79364A2C2101FB3C
:1002D40003F3134404331B681A68BB79012101FA40
:1002E40003F3DB431C46FB792E492C2000FB03F36C
:1002F4000B4404331B6822401A60FB79294A2C21E1
:1003040001FB03F3134404331B681A683B7903F0BD
:100314000101BB7901FA03F31C46FB7921492C2026
:1003240000FB03F30B4404331B6822431A60FB797C
:100334001C4A2C2101FB03F313440C331B681A6879
:10034400BB795B00032101FA03F3DB431C46FB7911
:1003540014492C2000FB03F30B440C331B6822408C
:100364001A60FB790F4A2C2101FB03F313440C336D
:100374001B681A683B795B1003F00301BB795B00CF
:1003840001FA03F31C46FB7906492C2000FB03F316
:100394000B440C331B6822431A6000BF0837BD4668
:1003A40090BC70470000002090B484B000AF0346B6
:1003B400FB710B46BB7113467B71FB79294A2C21D7
:1003C40001FB03F313441B681B68BA795200032131
:1003D40001FA02F21A40BB795B0022FA03F3012B03
:1003E40037D17B79002B18D0FB791E4A2C2101FBD5
:1003F40003F3134414331B681A68BB79012101FA0F
:1004040003F31C46FB7917492C2000FB03F30B4430
:1004140014331B6822431A6018E0FB79114A2C211B
:1004240001FB03F3134414331B681A68BB790121DD
:1004340001FA03F3DB431C46FB790A492C2000FB39
:1004440003F30B4414331B6822401A600023FB732C
:1004540001E00123FB73FB7B18461037BD4690BCBB
:10046400704700BF0000002080B500AF0020FFF7F8
:10047400AFFE0223002200210020FFF7E7FE002345
:10048400012202210020FFF7E1FE002301220321C3
:100494000020FFF7DBFE0023012204210020FFF7E8
:1004A400D5FE0023012205210020FFF7CFFE144BC7
:1004B4001B681A68124B1B6842F480421A60104B86
:1004C4005B681A680E4B5B6822F00F021A600C4BD3
:1004D4009B681A680A4B9B6842F001021A60084B39
:1004E4001B691A68064B1B6942F001021A60044B2F
:1004F4009B691A68024B9B6942F040021A60FEE74E
:100504005800002080B483B000AF00237B6002E079
:100514007B6801337B607B68044A9342F8DD00BF4B
:1005240000BF0C37BD465DF8047B70471FA1070070
:1005340080B582B000AF02237B600BE07B68DBB246
:10054400012219460020FFF72FFFFFF7DBFF7B682E
:1005540001337B607B68052BF0DD02233B600BE0FD
:100564003B68DBB2002219460020FFF71DFFFFF7AE
:10057400C9FF3B6801333B603B68052BF0DD064B4C
:100584005B691A68044B5B6942F001021A6000BFA0
:100594000837BD4680BD00BF5800002080B400AFBE
:1005A400064BD3F88830054A43F47003C2F8883008
:1005B40000BFBD465DF8047B704700BF00ED00E05E
:1005C400DFF834D00D480E490E4A002302E0D45817
:1005D400C4500433C4188C42F9D30B4A0B4C002387
:1005E40001E013600432A242FBD3FFF7D7FF00F00F
:1005F40011F8FFF739FF70470000012000000020C8
:100604007400002080060008740000209000002080
:10061400FEE7000070B50D4D0D4C641BA4100026C0
:10062400A64209D10B4D0C4C00F018F8641BA41021
:100634000026A64205D170BD55F8043B9847013603
:10064400EEE755F8043B98470136F2E778060008D0
:1006540078060008780600087C060008F8B500BF94
:10066400F8BC08BC9E467047F8B500BFF8BC08BC8F
:040674009E467047E7
:04067800B9010008BC
:04067C0095010008DC
:100680000000024004000240080002400C0002404A
:100690001000024014000240180002401C000240FA
:1006A0002000024024000240303802400004024092
:1006B00004040240080402400C04024010040240FA
:1006C00014040240180402401C04024020040240AA
:1006D00024040240303802404438024008380140C7
:1006E000003C0140083C01400C3C0140143C0140EE
:0406F00000E100E045
:04000005080005C525
:00000001FF
