:020000040800F2
:100000000000012099090008E9090008E909000831
:10001000E9090008E9090008E909000800000000F2
:10002000000000000000000000000000E9090008D6
:10003000E909000800000000E9090008E9090008D2
:10004000E9090008E9090008E9090008E9090008C8
:10005000E9090008E9090008DD0500080D060008A7
:10006000E9090008E9090008E9090008E9090008A8
:10007000E9090008E9090008E9090008E909000898
:10008000E9090008E9090008E90900080000000082
:10009000000000000000000000000000E909000866
:1000A000E9090008E9090008E9090008E909000868
:1000B000E9090008E9090008E9090008E909000858
:1000C000E9090008E9090008E9090008E909000848
:1000D000E9090008E9090008E90900080000000032
:1000E000E9090008E9090008E90900080000000022
:1000F000000000000000000000000000E909000806
:1001000000000000E9090008E9090008E909000801
:1001100000000000000000000000000000000000DF
:10012000E9090008E9090008E9090008E9090008E7
:10013000E9090008000000000000000000000000C5
:10014000000000000000000000000000E9090008B5
:10015000E9090008E9090008E9090008E9090008B7
:10016000E9090008E909000800000000000000009B
:10017000000000000000000000000000000000007F
:1001800000000000E9090008000000000000000075
:04019000E909000871
:1001940010B5054C237833B9044B13B10448AFF3BD
:1001A40000800123237010BD7800002000000000AF
:1001B400340A000808B5034B1BB103490348AFF3E5
:1001C400008008BD000000007C000020340A000804
:1001D40080B483B000AF0346FB71FB79002B02D0DF
:1001E400012B15D029E0FB79174A2C2101FB03F3DD
:1001F400134428331B681A68FB7913492C2000FB2D
:1002040003F30B4428331B6842F001021A6014E024
:10021400FB790D4A2C2101FB03F3134428331B689B
:100224001A68FB7908492C2000FB03F30B4428339C
:100234001B6842F002021A6000BF00BF0C37BD46C3
:100244005DF8047B704700BF0000002090B482B0CA
:1002540000AF0446084611461A462346FB7103467E
:10026400BB710B467B7113463B71FB794D4A2C21C4
:1002740001FB03F313441B681A68BB795B00032179
:1002840001FA03F3DB431C46FB7946492C2000FBAF
:1002940003F30B441B6822401A60FB79414A2C216A
:1002A40001FB03F313441B681A687979BB795B007B
:1002B40001FA03F31C46FB793A492C2000FB03F3B3
:1002C4000B441B6822431A60FB79364A2C2101FB3C
:1002D40003F3134404331B681A68BB79012101FA40
:1002E40003F3DB431C46FB792E492C2000FB03F36C
:1002F4000B4404331B6822401A60FB79294A2C21E1
:1003040001FB03F3134404331B681A683B7903F0BD
:100314000101BB7901FA03F31C46FB7921492C2026
:1003240000FB03F30B4404331B6822431A60FB797C
:100334001C4A2C2101FB03F313440C331B681A6879
:10034400BB795B00032101FA03F3DB431C46FB7911
:1003540014492C2000FB03F30B440C331B6822408C
:100364001A60FB790F4A2C2101FB03F313440C336D
:100374001B681A683B795B1003F00301BB795B00CF
:1003840001FA03F31C46FB7906492C2000FB03F316
:100394000B440C331B6822431A6000BF0837BD4668
:1003A40090BC70470000002090B484B000AF0346B6
:1003B400FB710B46BB7113467B71FB79294A2C21D7
:1003C40001FB03F313441B681B68BA795200032131
:1003D40001FA02F21A40BB795B0022FA03F3012B03
:1003E40037D17B79002B18D0FB791E4A2C2101FBD5
:1003F40003F3134414331B681A68BB79012101FA0F
:1004040003F31C46FB7917492C2000FB03F30B4430
:1004140014331B6822431A6018E0FB79114A2C211B
:1004240001FB03F3134414331B681A68BB790121DD
:1004340001FA03F3DB431C46FB790A492C2000FB39
:1004440003F30B4414331B6822401A600023FB732C
:1004540001E00123FB73FB7B18461037BD4690BCBB
:10046400704700BF0000002080B582B000AF0020BC
:10047400FFF7AEFE0120FFF7ABFE022300220021AE
:100484000020FFF7E3FE0223002201210020FFF7F2
:10049400DDFE0023012205210120FFF7D7FE002302
:1004A400012206210120FFF7D1FE002301220721AA
:1004B4000120FFF7CBFE0023012208210120FFF7D2
:1004C400C5FE0023012209210120FFF7BFFE0023FE
:1004D40001220A210120FFF7B9FE002301220C2189
:1004E4000120FFF7B3FE2F4B1B681A682D4B1B68C6
:1004F40042F480421A602B4B5B681A68294B5B6894
:1005040022F00F021A60274B9B681A68254B9B68E0
:1005140042F001021A60234B1B691A68214B1B69C4
:1005240042F001021A601F4B9B691A681D4B9B69BC
:1005340042F040021A601B4B5B681A68194B5B68F7
:1005440022F0F0021A60174B9B681A68154B9B68DF
:1005540042F002021A60134B1B691A68114B1B69A3
:1005640042F002021A600F4B9B6980221A600E4B04
:100574001B687B600B4BDB6940221A60094BDB690B
:1005840080221A60084B1B687B60064B9B694022E3
:100594001A60044B9B6980221A60786800F04CF85A
:1005A400E8E700BF580000209400002080B483B026
:1005B40000AF00237B6002E07B6801337B607B68D3
:1005C400044A9342F8DD00BF00BF0C37BD465DF816
:1005D400047B70473F420F0080B400AF084B1B6898
:1005E4000133074A1360074B5B691A68054B5B6963
:1005F40042F001021A6000BFBD465DF8047B7047FB
:10060400940000205800002080B400AF084B1B6801
:10061400013B074A1360074B5B691A68054B5B692A
:1006240042F002021A6000BFBD465DF8047B7047C9
:10063400940000205800002080B582B000AF78609C
:100644007968CA4B83FB01239A10CB17D21A13463D
:100654009B0013445B00CA1A092A00F2818101A39A
:1006640053F822F091060008D90600082107000873
:1006740069070008B1070008F907000841080008E5
:1006840089080008D50800081D0900080122052171
:100694000120FFF789FE012206210120FFF784FED5
:1006A400012207210120FFF77FFE012208210120FA
:1006B400FFF77AFE012209210120FFF775FE0122CE
:1006C4000A210120FFF770FE00220C210120FFF710
:1006D4006BFE46E1002205210120FFF765FE0122A1
:1006E40006210120FFF760FE012207210120FFF708
:1006F4005BFE002208210120FFF756FE002209219B
:100704000120FFF751FE00220A210120FFF74CFED1
:1007140000220C210120FFF747FE22E101220521DE
:100724000120FFF741FE012206210120FFF73CFED4
:10073400002207210120FFF737FE012208210120B2
:10074400FFF732FE012209210120FFF72DFE0022CE
:100754000A210120FFF728FE01220C210120FFF7C6
:1007640023FEFEE0012205210120FFF71DFE0122E8
:1007740006210120FFF718FE012207210120FFF7BF
:1007840013FE012208210120FFF70EFE0022092199
:100794000120FFF709FE00220A210120FFF704FED1
:1007A40001220C210120FFF7FFFDDAE000220521E0
:1007B4000120FFF7F9FD012206210120FFF7F4FDD6
:1007C400012207210120FFF7EFFD0022082101206B
:1007D400FFF7EAFD002209210120FFF7E5FD0122D0
:1007E4000A210120FFF7E0FD01220C210120FFF77F
:1007F400DBFDB6E0012205210120FFF7D5FD002233
:1008040006210120FFF7D0FD012207210120FFF777
:10081400CBFD012208210120FFF7C6FD002209219A
:100824000120FFF7C1FD01220A210120FFF7BCFDD1
:1008340001220C210120FFF7B7FD92E001220521DE
:100844000120FFF7B1FD002206210120FFF7ACFDD6
:10085400012207210120FFF7A7FD01220821012021
:10086400FFF7A2FD012209210120FFF79DFD0122CE
:100874000A210120FFF798FD01220C210120FFF736
:1008840093FD6EE0012205210120FFF78DFD012279
:1008940006210120FFF788FD012207210120FFF72F
:1008A40083FD002208210120FFF77EFD002209219B
:1008B4000120FFF779FD00220A210120FFF774FDD2
:1008C40000220C210120FFF76FFDFFF76FFE48E0C7
:1008D400012205210120FFF767FD012206210120E5
:1008E400FFF762FD012207210120FFF75DFD0122D0
:1008F40008210120FFF758FD012209210120FFF7FB
:1009040053FD01220A210120FFF74EFD01220C2193
:100914000120FFF749FD24E0012205210120FFF712
:1009240043FD012206210120FFF73EFD012207219C
:100934000120FFF739FD012208210120FFF734FDD2
:10094400002209210120FFF72FFD01220A210120A5
:10095400FFF72AFD01220C210120FFF725FD00E00D
:1009640000BF00BF0837BD4680BD00BF676666662E
:1009740080B400AF064BD3F88830054A43F47003C3
:10098400C2F8883000BFBD465DF8047B704700BFE5
:1009940000ED00E0DFF834D00D480E490E4A002384
:1009A40002E0D458C4500433C4188C42F9D30B4A1F
:1009B4000B4C002301E013600432A242FBD3FFF787
:1009C400D7FF00F011F8FFF74FFD7047000001203A
:1009D4000000002078000020540A0008780000205D
:1009E40098000020FEE7000070B50D4D0D4C641B0F
:1009F400A4100026A64209D10B4D0C4C00F018F8A7
:100A0400641BA4100026A64205D170BD55F8043B12
:100A140098470136EEE755F8043B98470136F2E76C
:100A24004C0A00084C0A00084C0A0008500A000846
:100A3400F8B500BFF8BC08BC9E467047F8B500BFC7
:080A4400F8BC08BC9E46704797
:040A4C00B9010008E4
:040A50009501000804
:100A54000000024004000240080002400C00024072
:100A64001000024014000240180002401C00024022
:100A740020000240240002403038024000040240BA
:100A840004040240080402400C0402401004024022
:100A940014040240180402401C04024020040240D2
:100AA40024040240303802404438024008380140EF
:100AB400003C0140083C01400C3C0140143C014016
:080AC40000E100E080E100E028
:04000005080009994D
:00000001FF
