:020000040800F2
:1000000000000120150400086504000865040008CC
:10001000650400086504000865040008000000008D
:10002000000000000000000000000000650400085F
:10003000650400080000000065040008650400086D
:1000400065040008650400086504000865040008EC
:1000500065040008650400086504000865040008DC
:1000600065040008650400086504000865040008CC
:1000700065040008650400086504000865040008BC
:10008000650400086504000865040008000000001D
:1000900000000000000000000000000065040008EF
:1000A000650400086504000865040008650400088C
:1000B000650400086504000865040008650400087C
:1000C000650400086504000865040008650400086C
:1000D00065040008650400086504000800000000CD
:1000E00065040008650400086504000800000000BD
:1000F000000000000000000000000000650400088F
:10010000000000006504000865040008650400089C
:1001100000000000000000000000000000000000DF
:10012000650400086504000865040008650400080B
:10013000650400080000000000000000000000004E
:10014000000000000000000000000000650400083E
:1001500065040008650400086504000865040008DB
:1001600065040008650400080000000000000000AD
:10017000000000000000000000000000000000007F
:1001800000000000650400080000000000000000FE
:0401900065040008FA
:1001940010B5054C237833B9044B13B10448AFF3BD
:1001A40000800123237010BD000000200000000027
:1001B400B004000808B5034B1BB103490348AFF36F
:1001C400008008BD0000000004000020B004000806
:1001D40080B500AF00F0ECF800F0C6F800F0AEF81F
:1001E400534B1B6903F00803002B0BD100BF504B8A
:1001F4001B6903F00803002BF9D04E4B1B68013335
:100204004C4A13604B4B19684B4B83FB01235A1028
:10021400CB17D21A1346DB001344CA1A531E072BFA
:1002240000F2838001A252F823F000BF51020008BB
:1002340063020008810200089F020008BD02000852
:10024400DB020008F902000817030008384B5B6959
:10025400374A23F0E003536100F070F866E0344B52
:100264005B69334A23F0C0035361314B5B69304A05
:1002740043F02003536100F061F857E02C4B5B69B5
:100284002B4A23F0A0035361294B5B69284A43F0AE
:100294004003536100F052F848E0254B5B69244A5F
:1002A40023F080035361224B5B69214A43F06003CE
:1002B400536100F043F839E01D4B5B691C4A23F09D
:1002C400600353611A4B5B69194A43F0800353611D
:1002D40000F034F82AE0164B5B69154A23F040031A
:1002E4005361134B5B69124A43F0A003536100F05E
:1002F40025F81BE00E4B5B690D4A23F02003536184
:100304000B4B5B690A4A43F0C003536100F016F8D3
:100314000CE0074B5B69064A43F0E003536100F0CD
:100324000DF8044B00221A6000E000BF52E700BF42
:10033400000402401C000020398EE33880B483B0EE
:1003440000AF00237B6002E07B6801337B607B6845
:100354004CF24F329342F7DD00BF00BF0C37BD466D
:100364005DF8047B7047000080B400AF0E4B1B6B3C
:100374000D4A43F0020313630C4B1B680B4A43F40E
:10038400A8431360094B5B68084A23F0E0035360F9
:10039400064BDB68054A23F4A843D36000BFBD467F
:1003A4005DF8047B704700BF00380240000402403F
:1003B40080B400AF0B4B1B6B0A4A43F00203136378
:1003C400094B1B68084A23F040031360064BDB68A3
:1003D400054A43F04003D36000BFBD465DF8047B8B
:1003E400704700BF003802400004024080B400AFF0
:1003F400064BD3F88830054A43F47003C2F88830BA
:1004040000BFBD465DF8047B704700BF00ED00E00F
:10041400DFF834D00D480E490E4A002302E0D458C8
:10042400C4500433C4188C42F9D30B4A0B4C002338
:1004340001E013600432A242FBD3FFF7D7FF00F0C0
:1004440011F8FFF7C5FE70470000012000000020EE
:1004540000000020D004000800000020200000203C
:10046400FEE7000070B50D4D0D4C641BA410002672
:10047400A64209D10B4D0C4C00F018F8641BA410D3
:100484000026A64205D170BD55F8043B98470136B5
:10049400EEE755F8043B98470136F2E7C804000834
:1004A400C8040008C8040008CC040008F8B500BF5C
:1004B400F8BC08BC9E467047F8B500BFF8BC08BC41
:0404C4009E46704799
:0404C800B90100086E
:0404CC00950100088E
:0400000508000415D6
:00000001FF
