:020000040800F2
:10000000000001203D0800088D0800088D08000848
:100010008D0800088D0800088D0800080000000009
:100020000000000000000000000000008D08000833
:100030008D080008000000008D0800088D080008E9
:100040008D0800088D0800088D0800088D0800083C
:100050008D0800088D0800083D0500086D050008A2
:100060008D0800088D0800088D0800088D0800081C
:100070008D0800088D0800088D0800088D0800080C
:100080008D0800088D0800088D0800080000000099
:100090000000000000000000000000008D080008C3
:1000A0008D0800088D0800088D0800088D080008DC
:1000B0008D0800088D0800088D0800088D080008CC
:1000C0008D0800088D0800088D0800088D080008BC
:1000D0008D0800088D0800088D0800080000000049
:1000E0008D0800088D0800088D0800080000000039
:1000F0000000000000000000000000008D08000863
:10010000000000008D0800088D0800088D08000818
:1001100000000000000000000000000000000000DF
:100120008D0800088D0800088D0800088D0800085B
:100130008D08000800000000000000000000000022
:100140000000000000000000000000008D08000812
:100150008D0800088D0800088D0800088D0800082B
:100160008D0800088D080008000000000000000055
:10017000000000000000000000000000000000007F
:10018000000000008D0800080000000000000000D2
:040190008D080008CE
:1001940010B5054C237833B9044B13B10448AFF3BD
:1001A40000800123237010BDA40000200000000083
:1001B400D808000808B5034B1BB103490348AFF343
:1001C400008008BD00000000A8000020D808000836
:1001D40080B483B000AF0346FB71FB79002B02D0DF
:1001E400012B15D029E0FB79174A2C2101FB03F3DD
:1001F400134428331B681A68FB7913492C2000FB2D
:1002040003F30B4428331B6842F001021A6014E024
:10021400FB790D4A2C2101FB03F3134428331B689B
:100224001A68FB7908492C2000FB03F30B4428339C
:100234001B6842F002021A6000BF00BF0C37BD46C3
:100244005DF8047B704700BF0000002090B482B0CA
:1002540000AF0446084611461A462346FB7103467E
:10026400BB710B467B7113463B71FB794D4A2C21C4
:1002740001FB03F313441B681A68BB795B00032179
:1002840001FA03F3DB431C46FB7946492C2000FBAF
:1002940003F30B441B6822401A60FB79414A2C216A
:1002A40001FB03F313441B681A687979BB795B007B
:1002B40001FA03F31C46FB793A492C2000FB03F3B3
:1002C4000B441B6822431A60FB79364A2C2101FB3C
:1002D40003F3134404331B681A68BB79012101FA40
:1002E40003F3DB431C46FB792E492C2000FB03F36C
:1002F4000B4404331B6822401A60FB79294A2C21E1
:1003040001FB03F3134404331B681A683B7903F0BD
:100314000101BB7901FA03F31C46FB7921492C2026
:1003240000FB03F30B4404331B6822431A60FB797C
:100334001C4A2C2101FB03F313440C331B681A6879
:10034400BB795B00032101FA03F3DB431C46FB7911
:1003540014492C2000FB03F30B440C331B6822408C
:100364001A60FB790F4A2C2101FB03F313440C336D
:100374001B681A683B795B1003F00301BB795B00CF
:1003840001FA03F31C46FB7906492C2000FB03F316
:100394000B440C331B6822431A6000BF0837BD4668
:1003A40090BC70470000002090B484B000AF0346B6
:1003B400FB710B46BB7113467B71FB79294A2C21D7
:1003C40001FB03F313441B681B68BA795200032131
:1003D40001FA02F21A40BB795B0022FA03F3012B03
:1003E40037D17B79002B18D0FB791E4A2C2101FBD5
:1003F40003F3134414331B681A68BB79012101FA0F
:1004040003F31C46FB7917492C2000FB03F30B4430
:1004140014331B6822431A6018E0FB79114A2C211B
:1004240001FB03F3134414331B681A68BB790121DD
:1004340001FA03F3DB431C46FB790A492C2000FB39
:1004440003F30B4414331B6822401A600023FB732C
:1004540001E00123FB73FB7B18461037BD4690BCBB
:10046400704700BF0000002080B582B000AF786004
:100474007B68DBB203F00103DBB21A4600210120E2
:10048400FFF792FF7B685B08DBB203F00103DBB28A
:100494001A4601210120FFF787FF7B689B08DBB226
:1004A40003F00103DBB21A4602210120FFF77CFFAF
:1004B4007B68DB08DBB203F00103DBB21A460321DD
:1004C4000120FFF771FF7B681B09DBB203F0010316
:1004D400DBB21A4604210120FFF766FF7B685B0943
:1004E400DBB203F00103DBB21A4605210120FFF75A
:1004F4005BFF7B689B09DBB203F00103DBB21A46A6
:1005040006210120FFF750FF00BF0837BD4680BD1C
:1005140080B483B000AF00237B6002E07B680133CA
:100524007B607B68632BF9DD00BF00BF0C37BD46E1
:100534005DF8047B7047000080B400AF084B1B6873
:100544000133074A1360074B5B691A68054B5B6903
:1005540042F001021A6000BFBD465DF8047B70479B
:10056400C00000205800002080B400AF084B1B6876
:10057400013B074A1360074B5B691A68054B5B69CB
:1005840042F002021A6000BFBD465DF8047B70476A
:10059400C00000205800002080B582B000AF0020C9
:1005A400FFF716FE0120FFF713FE002301220D21A1
:1005B4000120FFF74BFE00237B6009E07B68D9B282
:1005C400002301220120FFF741FE7B6801337B6099
:1005D4007B680A2BF2DD0223002200210020FFF7B2
:1005E40035FE0223002201210020FFF72FFE7F4B5E
:1005F4001B681A687D4B1B6842F480421A607B4B6F
:100604005B681A68794B5B6822F00F021A60774BBB
:100614009B681A68754B9B6842F001021A60734B21
:100624001B691A68714B1B6942F001021A606F4B17
:100634009B691A686D4B9B6942F040021A606B4BD0
:100644005B681A68694B5B6822F0F0021A60674BBA
:100654009B681A68654B9B6842F002021A60634B00
:100664001B691A68614B1B6942F002021A605F4BF6
:100674009B6980221A605E4B1B683B605B4BDB69A5
:1006840040221A60594BDB6980221A60584B1B6860
:100694003B60564B9B6940221A60544B9B698022F5
:1006A4001A603B68534A82FB03129211DB17D31A78
:1006B4001A46514B1A603B68504A82FB031252118E
:1006C400DB17D21A4E4B83FB02139910D317C91AA6
:1006D4000B469B000B445B00D11A0A46494B1A6037
:1006E4003B68474A82FB03129210DB17D21A444B31
:1006F40083FB02139910D317C91A0B469B000B44B2
:100704005B00D11A0A46404B1A603A683C4B83FBA3
:1007140002139910D317C91A0B469B000B445B00B4
:10072400D11A0A46394B1A60334B1B68384A52F8BF
:1007340023301846FFF798FE002207210120FFF717
:1007440033FEFFF7E5FE012207210120FFF72CFE0F
:100754002C4B1B682E4A52F823301846FFF784FEB0
:10076400002208210120FFF71FFEFFF7D1FE01221E
:1007740008210120FFF718FE234B1B68244A52F876
:1007840023301846FFF770FE002209210120FFF7ED
:100794000BFEFFF7BDFE012209210120FFF704FE35
:1007A4001A4B1B681A4A52F823301846FFF75CFEAE
:1007B40000220A210120FFF7F7FDFFF7A9FE01221D
:1007C4000A210120FFF7F0FD114B9B6A1846FFF741
:1007D4004BFE00220C210120FFF7E6FDFFF798FEF7
:1007E40001220C210120FFF7DFFD47E7580000201C
:1007F400C0000020D34D6210CC0000201F85EB51B7
:1008040067666666C4000020D4000020D000002083
:100814007800002080B400AF064BD3F88830054A36
:1008240043F47003C2F8883000BFBD465DF8047B12
:10083400704700BF00ED00E0DFF834D00D480E49EA
:100844000E4A002302E0D458C4500433C4188C4226
:10085400F9D30B4A0B4C002301E013600432A2428B
:10086400FBD3FFF7D7FF00F011F8FFF795FE7047B1
:100874000000012000000020A4000020F808000867
:10088400A4000020D8000020FEE7000070B50D4D44
:100894000D4C641BA4100026A64209D10B4D0C4C30
:1008A40000F018F8641BA4100026A64205D170BD00
:1008B40055F8043B98470136EEE755F8043B984752
:1008C4000136F2E7F0080008F0080008F008000814
:1008D400F4080008F8B500BFF8BC08BC9E46704791
:0C08E400F8B500BFF8BC08BC9E46704789
:0408F000B901000842
:0408F4009501000862
:1008F8000000024004000240080002400C000240D0
:100908001000024014000240180002401C0002407F
:100918002000024024000240303802400004024017
:1009280004040240080402400C040240100402407F
:1009380014040240180402401C040240200402402F
:10094800240402403038024044380240083801404C
:10095800003C0140083C01400C3C0140143C014073
:1009680000E100E080E100E03F0000000600000038
:100978005B0000004F000000660000006D000000F2
:100988007D000000070000007F00000067000000F5
:04099800400000001B
:040000050800083DAA
:00000001FF
